{
  "contractName": "Voting",
  "abi": [
    {
      "inputs": [],
      "stateMutability": "nonpayable",
      "type": "constructor"
    },
    {
      "anonymous": false,
      "inputs": [
        {
          "indexed": true,
          "internalType": "uint256",
          "name": "candidateId",
          "type": "uint256"
        },
        {
          "indexed": false,
          "internalType": "string",
          "name": "name",
          "type": "string"
        }
      ],
      "name": "CandidateAdded",
      "type": "event"
    },
    {
      "anonymous": false,
      "inputs": [
        {
          "indexed": true,
          "internalType": "uint256",
          "name": "candidateId",
          "type": "uint256"
        },
        {
          "indexed": true,
          "internalType": "address",
          "name": "voter",
          "type": "address"
        }
      ],
      "name": "VotedEvent",
      "type": "event"
    },
    {
      "inputs": [
        {
          "internalType": "uint256",
          "name": "",
          "type": "uint256"
        }
      ],
      "name": "candidates",
      "outputs": [
        {
          "internalType": "uint256",
          "name": "id",
          "type": "uint256"
        },
        {
          "internalType": "string",
          "name": "name",
          "type": "string"
        },
        {
          "internalType": "uint256",
          "name": "voteCount",
          "type": "uint256"
        }
      ],
      "stateMutability": "view",
      "type": "function",
      "constant": true
    },
    {
      "inputs": [],
      "name": "candidatesCount",
      "outputs": [
        {
          "internalType": "uint256",
          "name": "",
          "type": "uint256"
        }
      ],
      "stateMutability": "view",
      "type": "function",
      "constant": true
    },
    {
      "inputs": [
        {
          "internalType": "address",
          "name": "",
          "type": "address"
        }
      ],
      "name": "hasVoted",
      "outputs": [
        {
          "internalType": "bool",
          "name": "",
          "type": "bool"
        }
      ],
      "stateMutability": "view",
      "type": "function",
      "constant": true
    },
    {
      "inputs": [],
      "name": "owner",
      "outputs": [
        {
          "internalType": "address",
          "name": "",
          "type": "address"
        }
      ],
      "stateMutability": "view",
      "type": "function",
      "constant": true
    },
    {
      "inputs": [
        {
          "internalType": "string",
          "name": "_name",
          "type": "string"
        }
      ],
      "name": "addCandidate",
      "outputs": [],
      "stateMutability": "nonpayable",
      "type": "function"
    },
    {
      "inputs": [
        {
          "internalType": "uint256",
          "name": "_candidateId",
          "type": "uint256"
        }
      ],
      "name": "vote",
      "outputs": [],
      "stateMutability": "nonpayable",
      "type": "function"
    },
    {
      "inputs": [
        {
          "internalType": "uint256",
          "name": "_id",
          "type": "uint256"
        }
      ],
      "name": "getCandidate",
      "outputs": [
        {
          "components": [
            {
              "internalType": "uint256",
              "name": "id",
              "type": "uint256"
            },
            {
              "internalType": "string",
              "name": "name",
              "type": "string"
            },
            {
              "internalType": "uint256",
              "name": "voteCount",
              "type": "uint256"
            }
          ],
          "internalType": "struct Voting.Candidate",
          "name": "",
          "type": "tuple"
        }
      ],
      "stateMutability": "view",
      "type": "function",
      "constant": true
    },
    {
      "inputs": [],
      "name": "getCandidatesCount",
      "outputs": [
        {
          "internalType": "uint256",
          "name": "",
          "type": "uint256"
        }
      ],
      "stateMutability": "view",
      "type": "function",
      "constant": true
    }
  ],
  "bytecode": "0x60a06040523480156200001157600080fd5b503373ffffffffffffffffffffffffffffffffffffffff1660808173ffffffffffffffffffffffffffffffffffffffff16815250506200008c6040518060400160405280600b81526020017f43616e6469646174652031000000000000000000000000000000000000000000815250620000d860201b60201c565b620000d26040518060400160405280600b81526020017f43616e6469646174652032000000000000000000000000000000000000000000815250620000d860201b60201c565b62000629565b60805173ffffffffffffffffffffffffffffffffffffffff163373ffffffffffffffffffffffffffffffffffffffff16146200014b576040517f08c379a000000000000000000000000000000000000000000000000000000000815260040162000142906200022a565b60405180910390fd5b60026000815480929190620001609062000285565b91905055506040518060600160405280600254815260200182815260200160008152506000806002548152602001908152602001600020600082015181600001556020820151816001019081620001b8919062000542565b506040820151816002015590505050565b600082825260208201905092915050565b7f4f6e6c79206f776e65722063616e206578656375746520746869730000000000600082015250565b600062000212601b83620001c9565b91506200021f82620001da565b602082019050919050565b60006020820190508181036000830152620002458162000203565b9050919050565b7f4e487b7100000000000000000000000000000000000000000000000000000000600052601160045260246000fd5b6000819050919050565b600062000292826200027b565b91507fffffffffffffffffffffffffffffffffffffffffffffffffffffffffffffffff8203620002c757620002c66200024c565b5b600182019050919050565b600081519050919050565b7f4e487b7100000000000000000000000000000000000000000000000000000000600052604160045260246000fd5b7f4e487b7100000000000000000000000000000000000000000000000000000000600052602260045260246000fd5b600060028204905060018216806200035457607f821691505b6020821081036200036a57620003696200030c565b5b50919050565b60008190508160005260206000209050919050565b60006020601f8301049050919050565b600082821b905092915050565b600060088302620003d47fffffffffffffffffffffffffffffffffffffffffffffffffffffffffffffffff8262000395565b620003e0868362000395565b95508019841693508086168417925050509392505050565b6000819050919050565b6000620004236200041d62000417846200027b565b620003f8565b6200027b565b9050919050565b6000819050919050565b6200043f8362000402565b620004576200044e826200042a565b848454620003a2565b825550505050565b600090565b6200046e6200045f565b6200047b81848462000434565b505050565b5b81811015620004a3576200049760008262000464565b60018101905062000481565b5050565b601f821115620004f257620004bc8162000370565b620004c78462000385565b81016020851015620004d7578190505b620004ef620004e68562000385565b83018262000480565b50505b505050565b600082821c905092915050565b60006200051760001984600802620004f7565b1980831691505092915050565b600062000532838362000504565b9150826002028217905092915050565b6200054d82620002d2565b67ffffffffffffffff811115620005695762000568620002dd565b5b6200057582546200033b565b62000582828285620004a7565b600060209050601f831160018114620005ba5760008415620005a5578287015190505b620005b1858262000524565b86555062000621565b601f198416620005ca8662000370565b60005b82811015620005f457848901518255600182019150602085019450602081019050620005cd565b8683101562000614578489015162000610601f89168262000504565b8355505b6001600288020188555050505b505050505050565b60805161101c6200064c60003960008181610555015261065d015261101c6000f3fe608060405234801561001057600080fd5b50600436106100885760003560e01c806335b8e8201161005b57806335b8e82014610129578063462e91ec146101595780638da5cb5b14610175578063bb9aa28f1461019357610088565b80630121b93f1461008d57806309eef43e146100a95780632d35a8a2146100d95780633477ee2e146100f7575b600080fd5b6100a760048036038101906100a291906106f4565b6101b1565b005b6100c360048036038101906100be919061077f565b610358565b6040516100d091906107c7565b60405180910390f35b6100e1610378565b6040516100ee91906107f1565b60405180910390f35b610111600480360381019061010c91906106f4565b61037e565b6040516101209392919061089c565b60405180910390f35b610143600480360381019061013e91906106f4565b610430565b6040516101509190610983565b60405180910390f35b610173600480360381019061016e9190610ada565b610553565b005b61017d61065b565b60405161018a9190610b32565b60405180910390f35b61019b61067f565b6040516101a891906107f1565b60405180910390f35b600160003373ffffffffffffffffffffffffffffffffffffffff1673ffffffffffffffffffffffffffffffffffffffff16815260200190815260200160002060009054906101000a900460ff161561023e576040517f08c379a000000000000000000000000000000000000000000000000000000000815260040161023590610b99565b60405180910390fd5b60008111801561025057506002548111155b61028f576040517f08c379a000000000000000000000000000000000000000000000000000000000815260040161028690610c05565b60405180910390fd5b60018060003373ffffffffffffffffffffffffffffffffffffffff1673ffffffffffffffffffffffffffffffffffffffff16815260200190815260200160002060006101000a81548160ff021916908315150217905550600080828152602001908152602001600020600201600081548092919061030c90610c54565b91905055503373ffffffffffffffffffffffffffffffffffffffff16817fef0a8c30b864cd88d58d772c577afd36560b80a69c4eea26d684aa68cca2b1e560405160405180910390a350565b60016020528060005260406000206000915054906101000a900460ff1681565b60025481565b60006020528060005260406000206000915090508060000154908060010180546103a790610ccb565b80601f01602080910402602001604051908101604052809291908181526020018280546103d390610ccb565b80156104205780601f106103f557610100808354040283529160200191610420565b820191906000526020600020905b81548152906001019060200180831161040357829003601f168201915b5050505050908060020154905083565b610438610689565b60008211801561044a57506002548211155b610489576040517f08c379a000000000000000000000000000000000000000000000000000000000815260040161048090610c05565b60405180910390fd5b600080838152602001908152602001600020604051806060016040529081600082015481526020016001820180546104c090610ccb565b80601f01602080910402602001604051908101604052809291908181526020018280546104ec90610ccb565b80156105395780601f1061050e57610100808354040283529160200191610539565b820191906000526020600020905b81548152906001019060200180831161051c57829003601f168201915b505050505081526020016002820154815250509050919050565b7f000000000000000000000000000000000000000000000000000000000000000073ffffffffffffffffffffffffffffffffffffffff163373ffffffffffffffffffffffffffffffffffffffff16146105e1576040517f08c379a00000000000000000000000000000000000000000000000000000000081526004016105d890610d48565b60405180910390fd5b600260008154809291906105f490610c54565b9190505550604051806060016040528060025481526020018281526020016000815250600080600254815260200190815260200160002060008201518160000155602082015181600101908161064a9190610f14565b506040820151816002015590505050565b7f000000000000000000000000000000000000000000000000000000000000000081565b6000600254905090565b60405180606001604052806000815260200160608152602001600081525090565b6000604051905090565b600080fd5b600080fd5b6000819050919050565b6106d1816106be565b81146106dc57600080fd5b50565b6000813590506106ee816106c8565b92915050565b60006020828403121561070a576107096106b4565b5b6000610718848285016106df565b91505092915050565b600073ffffffffffffffffffffffffffffffffffffffff82169050919050565b600061074c82610721565b9050919050565b61075c81610741565b811461076757600080fd5b50565b60008135905061077981610753565b92915050565b600060208284031215610795576107946106b4565b5b60006107a38482850161076a565b91505092915050565b60008115159050919050565b6107c1816107ac565b82525050565b60006020820190506107dc60008301846107b8565b92915050565b6107eb816106be565b82525050565b600060208201905061080660008301846107e2565b92915050565b600081519050919050565b600082825260208201905092915050565b60005b8381101561084657808201518184015260208101905061082b565b60008484015250505050565b6000601f19601f8301169050919050565b600061086e8261080c565b6108788185610817565b9350610888818560208601610828565b61089181610852565b840191505092915050565b60006060820190506108b160008301866107e2565b81810360208301526108c38185610863565b90506108d260408301846107e2565b949350505050565b6108e3816106be565b82525050565b600082825260208201905092915050565b60006109058261080c565b61090f81856108e9565b935061091f818560208601610828565b61092881610852565b840191505092915050565b600060608301600083015161094b60008601826108da565b506020830151848203602086015261096382826108fa565b915050604083015161097860408601826108da565b508091505092915050565b6000602082019050818103600083015261099d8184610933565b905092915050565b600080fd5b600080fd5b7f4e487b7100000000000000000000000000000000000000000000000000000000600052604160045260246000fd5b6109e782610852565b810181811067ffffffffffffffff82111715610a0657610a056109af565b5b80604052505050565b6000610a196106aa565b9050610a2582826109de565b919050565b600067ffffffffffffffff821115610a4557610a446109af565b5b610a4e82610852565b9050602081019050919050565b82818337600083830152505050565b6000610a7d610a7884610a2a565b610a0f565b905082815260208101848484011115610a9957610a986109aa565b5b610aa4848285610a5b565b509392505050565b600082601f830112610ac157610ac06109a5565b5b8135610ad1848260208601610a6a565b91505092915050565b600060208284031215610af057610aef6106b4565b5b600082013567ffffffffffffffff811115610b0e57610b0d6106b9565b5b610b1a84828501610aac565b91505092915050565b610b2c81610741565b82525050565b6000602082019050610b476000830184610b23565b92915050565b7f596f75206861766520616c726561647920766f74656400000000000000000000600082015250565b6000610b83601683610817565b9150610b8e82610b4d565b602082019050919050565b60006020820190508181036000830152610bb281610b76565b9050919050565b7f496e76616c69642063616e646964617465204944000000000000000000000000600082015250565b6000610bef601483610817565b9150610bfa82610bb9565b602082019050919050565b60006020820190508181036000830152610c1e81610be2565b9050919050565b7f4e487b7100000000000000000000000000000000000000000000000000000000600052601160045260246000fd5b6000610c5f826106be565b91507fffffffffffffffffffffffffffffffffffffffffffffffffffffffffffffffff8203610c9157610c90610c25565b5b600182019050919050565b7f4e487b7100000000000000000000000000000000000000000000000000000000600052602260045260246000fd5b60006002820490506001821680610ce357607f821691505b602082108103610cf657610cf5610c9c565b5b50919050565b7f4f6e6c79206f776e65722063616e206578656375746520746869730000000000600082015250565b6000610d32601b83610817565b9150610d3d82610cfc565b602082019050919050565b60006020820190508181036000830152610d6181610d25565b9050919050565b60008190508160005260206000209050919050565b60006020601f8301049050919050565b600082821b905092915050565b600060088302610dca7fffffffffffffffffffffffffffffffffffffffffffffffffffffffffffffffff82610d8d565b610dd48683610d8d565b95508019841693508086168417925050509392505050565b6000819050919050565b6000610e11610e0c610e07846106be565b610dec565b6106be565b9050919050565b6000819050919050565b610e2b83610df6565b610e3f610e3782610e18565b848454610d9a565b825550505050565b600090565b610e54610e47565b610e5f818484610e22565b505050565b5b81811015610e8357610e78600082610e4c565b600181019050610e65565b5050565b601f821115610ec857610e9981610d68565b610ea284610d7d565b81016020851015610eb1578190505b610ec5610ebd85610d7d565b830182610e64565b50505b505050565b600082821c905092915050565b6000610eeb60001984600802610ecd565b1980831691505092915050565b6000610f048383610eda565b9150826002028217905092915050565b610f1d8261080c565b67ffffffffffffffff811115610f3657610f356109af565b5b610f408254610ccb565b610f4b828285610e87565b600060209050601f831160018114610f7e5760008415610f6c578287015190505b610f768582610ef8565b865550610fde565b601f198416610f8c86610d68565b60005b82811015610fb457848901518255600182019150602085019450602081019050610f8f565b86831015610fd15784890151610fcd601f891682610eda565b8355505b6001600288020188555050505b50505050505056fea26469706673582212202b6bfab7d7ec67997ea2c3b8dc6d837f9e2360079e023cf200374f5fe92de94c64736f6c63430008130033",
  "immutableReferences": {
    "21": [
      {
        "length": 32,
        "start": 1365
      },
      {
        "length": 32,
        "start": 1629
      }
    ]
  },
  "source": "// SPDX-License-Identifier: MIT\r\npragma solidity ^0.8.19;\r\n\r\ncontract Voting {\r\n    struct Candidate {\r\n        uint id;\r\n        string name;\r\n        uint voteCount;\r\n    }\r\n\r\n    mapping(uint => Candidate) public candidates;\r\n    mapping(address => bool) public hasVoted;\r\n    uint public candidatesCount;\r\n    address public immutable owner;\r\n\r\n    event VotedEvent(uint indexed candidateId, address indexed voter);\r\n    event CandidateAdded(uint indexed candidateId, string name);\r\n\r\n    modifier onlyOwner() {\r\n        require(msg.sender == owner, \"Only owner can execute this\");\r\n        _;\r\n    }\r\n\r\n    constructor() {\r\n        owner = msg.sender;\r\n        // Add initial candidates on contract deployment\r\n        addCandidate(\"Candidate 1\");\r\n        addCandidate(\"Candidate 2\");\r\n    }\r\n\r\n    function addCandidate(string memory _name) public onlyOwner {\r\n        candidatesCount++;\r\n        candidates[candidatesCount] = Candidate(candidatesCount, _name, 0);\r\n    }\r\n\r\n\r\n\r\n    function vote(uint _candidateId) public {\r\n        // Ensure the sender has not voted yet\r\n        require(!hasVoted[msg.sender], \"You have already voted\");\r\n        \r\n        // Ensure the candidate ID is valid\r\n        require(_candidateId > 0 && _candidateId <= candidatesCount, \"Invalid candidate ID\");\r\n\r\n        // Mark the sender as having voted\r\n        hasVoted[msg.sender] = true;\r\n\r\n        // Increment the vote count for the candidate\r\n        candidates[_candidateId].voteCount++;\r\n\r\n        // Emit the vote event\r\n        emit VotedEvent(_candidateId, msg.sender);\r\n    }\r\n\r\n    function getCandidate(uint _id) public view returns (Candidate memory) {\r\n        // Ensure the candidate ID is valid\r\n        require(_id > 0 && _id <= candidatesCount, \"Invalid candidate ID\");\r\n        \r\n        // Return the candidate details\r\n        return candidates[_id];\r\n    }\r\n\r\n    function getCandidatesCount() public view returns (uint) {\r\n        return candidatesCount;\r\n    }\r\n}\r\n",
  "sourcePath": "D:\\HTML\\Blockchain\\voting\\blockchainVoating\\contracts\\Voting.sol",
  "compiler": {
    "name": "solc",
    "version": "0.8.19+commit.7dd6d404.Emscripten.clang"
  },
  "schemaVersion": "3.4.16",
  "updatedAt": "2025-02-05T16:19:07.044Z",
  "networkType": "ethereum",
  "devdoc": {
    "kind": "dev",
    "methods": {},
    "version": 1
  },
  "userdoc": {
    "kind": "user",
    "methods": {},
    "version": 1
  }
}